:100000000C942A000C94ED050C9416060C943F06F3
:100010000C9447000C9447000C945E070C940C075A
:100020000C9435070C94E3060C94BA060C949106D4
:100030000C9468060C9487070C9447000C94B00746
:100040000C94AE030C9447000C9447000C944700AA
:100050000C94470011241FBECFE5D8E0DEBFCDBF12
:1000600010E0A0E6B0E0E6E5F0E102C005900D92F8
:10007000A63BB107D9F720E0A6EBB0E001C01D9286
:10008000A63DB207E1F70E9462030C9429080C9484
:10009000000061E087E10E94E404089561E086E1E8
:1000A0000E94E40408958091BA00811110C00E945A
:1000B000A3039093B9008093B80081E08093BA00C5
:1000C0008093BB008091BB000E946F0308958091D4
:1000D000600081110FC00E9453039093B70080937A
:1000E000B60081E0809360001092BB008091BB005D
:1000F0000E946F0308950E94D4040E94A30283E526
:1001000090E00E94A603789469E470E080E00E9489
:10011000D8056EE470E081E00E94D80563E080E0DD
:100120000E94790580E00E94670563E081E00E94FB
:10013000790581E00E94670567E081E00E947A030B
:1001400080E00E94AB0308958091B8009091B900BF
:100150008F3F9340C0F48091B8009091B9008130F6
:10016000934088F061E08FE00E94E40460E084E066
:100170000E94E40460E085E00E94E40460E086E020
:100180000E94E40408958091B8009091B90081150F
:100190009340C0F48091B8009091B90081309240B2
:1001A00088F060E08FE00E94E40461E084E00E9457
:1001B000E40460E085E00E94E40460E086E00E94E0
:1001C000E40408958091B8009091B900811592409F
:1001D000C0F48091B8009091B9008130914088F0CE
:1001E00060E08FE00E94E40460E084E00E94E404A8
:1001F00061E085E00E94E40460E086E00E94E4049F
:1002000008958091B8009091B900892B81F060E049
:100210008FE00E94E40460E084E00E94E40460E077
:1002200085E00E94E40461E086E00E94E404089511
:1002300060E086E10E94E40460E087E10E94E4045B
:1002400060E083E00E94C20281E690E00E94E10249
:1002500089E890E00E94E1026FE084E00E94C2021F
:1002600089E890E00E94E1028091B6009091B70089
:1002700084309140B0F061E08AE10E94E4048FE9AB
:100280009FE00197F1F700C0000060E08AE10E9462
:10029000E4046FE084E00E94C20280E790E00E94E4
:1002A000E1028091B8009091B90081399140B0F09D
:1002B00061E08BE10E94E4048FE99FE00197F1F790
:1002C00000C0000060E08BE10E94E4046FE083E086
:1002D0000E94C20285E790E00E94E10280916000E6
:1002E000882309F453C060E081E00E94C20289E7DC
:1002F00090E00E94E10265E081E00E94C2028EE887
:1003000090E00E94E10265E081E00E94C20220913B
:10031000B6003091B700ADECBCEC0E941A0896957F
:1003200087959695879596958795BC0180E090E096
:100330000E94F4028EE20E94DE024091B6005091CB
:10034000B7009A01ADECBCEC0E941A08BC0176958E
:1003500067957695679576956795CB01880F991F78
:10036000660F771F660F771F660F771F680F791F5D
:10037000CA01861B970BBC0180E090E00E94F4024A
:100380008EE890E00E94E102109260008091BA0035
:100390008823C1F060E082E00E94C2028FE790E013
:1003A0000E94E1026091B8007091B90080E090E095
:1003B0000E94F40284E890E00E94E1020E94A400FE
:1003C0001092BA000895CF93C82F60E083E00E9496
:1003D000E4046C2F661F6627661F8CE00E94E4040D
:1003E000C6FB662760F98AE00E94E404C5FB662725
:1003F00060F989E00E94E404C4FB662760F988E0A4
:100400000E94E40461E082E00E94E4048FE99FE03E
:100410000197F1F700C0000060E082E00E94E40470
:100420008FE99FE00197F1F700C00000C3FB66274A
:1004300060F98CE00E94E404C2FB662760F98AE060
:100440000E94E404C1FB662760F989E00E94E4048D
:100450006C2F617088E00E94E40461E082E00E94F9
:10046000E4048FE99FE00197F1F700C0000060E02D
:1004700082E00E94E4048FE99FE00197F1F700C059
:100480000000CF910895CF93C82F61E083E00E94D0
:10049000E4046C2F661F6627661F8CE00E94E4044C
:1004A000C6FB662760F98AE00E94E404C5FB662764
:1004B00060F989E00E94E404C4FB662760F988E0E3
:1004C0000E94E40461E082E00E94E4048FE99FE07E
:1004D0000197F1F700C0000060E082E00E94E404B0
:1004E0008FE99FE00197F1F700C00000C3FB66278A
:1004F00060F98CE00E94E404C2FB662760F98AE0A0
:100500000E94E404C1FB662760F989E00E94E404CC
:100510006C2F617088E00E94E40461E082E00E9438
:10052000E4048FE99FE00197F1F700C0000060E06C
:1005300082E00E94E4048FE99FE00197F1F700C098
:100540000000CF9108952FE785EB91E02150804086
:100550009040E1F700C0000082E00E94E30188E2E1
:100560000E94E3018CE00E94E30181E00E94E3012C
:100570008FE99FE00197F1F700C0000086E00E943C
:10058000E3010895813029F480E8860F0E94E30199
:100590000895823029F480EC860F0E94E3010895CB
:1005A000833029F484E9860F0E94E30108958430A2
:1005B00021F484ED860F0E94E30108950E94430216
:1005C00008950F931F93CF938C01C0E003C00E9446
:1005D0004302CF5FF801EC0FF11D80818111F7CF4D
:1005E000CF911F910F910895CF92DF92EF92FF92DA
:1005F0001F93CF93DF93CDB7DEB72A970FB6F8944A
:10060000DEBF0FBECDBF6B017C0161157105810599
:10061000910521F480E30E94DE020DC099235CF471
:100620008DE20E94DE02F094E094D094C094C11C4C
:10063000D11CE11CF11C10E015C0C701B6012AE075
:1006400030E040E050E00E94FB07E1E0F0E0EC0F1A
:10065000FD1FE10FF11D605D6083C22ED32EE42EDD
:10066000F52E1F5F1C141D041E041F0434F31150CB
:100670000AC0E1E0F0E0EC0FFD1FE10FF11D808109
:100680000E94DE0211501F3FA1F72A960FB6F89480
:10069000DEBF0FBECDBFDF91CF911F91FF90EF90D6
:1006A000DF90CF9008950E94A3039C01ACEDB5E0CC
:1006B0000E941A0824E331E040E050E00E94D9078C
:1006C000C90108950E947B000E941801FDCF86B1E8
:1006D000806886B9089586B1886086B9089597B113
:1006E000907E97B9877097B1892B87B986B180645E
:1006F00086B90895813059F018F0823079F014C02D
:1007000087B18F7B87B987B18F7787B90DC087B1E4
:10071000806487B987B18F7787B906C087B1806455
:1007200087B987B1806887B986B1887F86B96770D5
:1007300086B1682B66B986B1806286B90E9467036C
:100740000E946B03089584B195B108959093BD0004
:100750008093BC0008950E946F0308951F920F922A
:100760000FB60F9211242F933F934F935F936F9384
:100770007F938F939F93AF93BF93EF93FF93E091FA
:10078000BC00F091BD00309709F00995FF91EF9101
:10079000BF91AF919F918F917F916F915F914F9199
:1007A0003F912F910F900FBE0F901F901895982F8B
:1007B0009770869586958695613009F455C020F02E
:1007C000623009F4A1C008958130C1F028F0823070
:1007D00039F18330B9F108954AB321E030E0B9012D
:1007E00002C0660F771F9A95E2F7CB01942F982BE2
:1007F0009ABB9BB3809589238BBB089547B321E0B7
:1008000030E0B90102C0660F771F9A95E2F7CB017D
:10081000942F982B97BB98B38095892388BB089514
:1008200044B321E030E0B90102C0660F771F9A950A
:10083000E2F7CB01942F982B94BB95B38095892335
:1008400085BB089541B321E030E0B90102C0660FD5
:10085000771F9A95E2F7CB01942F982B91BB92B317
:100860008095892382BB08958130C1F028F08230C1
:1008700039F18330B9F108954AB321E030E0B9018C
:1008800002C0660F771F9A95E2F7CB018095942FEF
:1008900098239ABB9BB389238BBB089547B321E070
:1008A00030E0B90102C0660F771F9A95E2F7CB01DD
:1008B0008095942F982397BB98B3892388BB08957C
:1008C00044B321E030E0B90102C0660F771F9A956A
:1008D000E2F7CB018095942F982394BB95B389239D
:1008E00085BB089541B321E030E0B90102C0660F35
:1008F000771F9A95E2F7CB018095942F982391BBAF
:1009000092B3892382BB08958130C1F028F08230F0
:1009100039F18330B9F108954AB321E030E0B901EB
:1009200002C0660F771F9A95E2F7CB01962F90953C
:1009300094239ABB9BB3892B8BBB089547B321E0CB
:1009400030E0B90102C0660F771F9A95E2F7CB013C
:10095000962F9095942397BB98B3892B88BB0895C5
:1009600044B321E030E0B90102C0660F771F9A95C9
:10097000E2F7CB01962F9095942394BB95B3892BE6
:1009800085BB089541B321E030E0B90102C0660F94
:10099000771F9A95E2F7CB01962F9095942391BB00
:1009A00092B3892B82BB0895CF93C0E009C0EC2F8E
:1009B000F0E0EB56FF4F60818C2F0E94D703CF5F92
:1009C000C032A8F3CF910895982F97708695869599
:1009D00086956130E1F5813099F028F08230E9F0B8
:1009E000833041F108954BB321E030E0B90102C0FA
:1009F000660F771F9A95E2F7CB01842B8BBB089586
:100A000048B321E030E0B90102C0660F771F9A9524
:100A1000E2F7CB01842B88BB089545B321E030E099
:100A2000B90102C0660F771F9A95E2F7CB01842BBC
:100A300085BB089542B321E030E0B90102C0660FE2
:100A4000771F9A95E2F7CB01842B82BB0895813002
:100A5000A1F028F08230F9F0833059F108954BB3BA
:100A600021E030E0B90102C0660F771F9A95E2F7E6
:100A7000CB01809584238BBB089548B321E030E0FF
:100A8000B90102C0660F771F9A95E2F7CB018095F6
:100A9000842388BB089545B321E030E0B90102C04A
:100AA000660F771F9A95E2F7CB018095842385BB6B
:100AB000089542B321E030E0B90102C0660F771F0C
:100AC0009A95E2F7CB018095842382BB089581300B
:100AD00041F018F0823049F008958BB780648BBFE5
:100AE00008958BB780688BBF08958BB780628BBFEA
:100AF0000895813049F120F0823009F449C0089509
:100B0000613069F028F06230C1F0633079F0089507
:100B100085B78E7F85BF85B78D7F85BF089585B7E3
:100B2000816085BF85B78D7F85BF089585B781605A
:100B300085BF85B7826085BF089585B78E7F85BFE5
:100B400085B7826085BF0895613069F028F0623012
:100B5000C1F0633079F0089585B78B7F85BF85B785
:100B6000877F85BF089585B7846085BF85B7877FF8
:100B700085BF089585B7846085BF85B7886085BFC8
:100B8000089585B78B7F85BF85B7886085BF089539
:100B9000623031F0633041F484B7806484BF0895DB
:100BA00084B78F7B84BF089584B78F7B84BF0895FB
:100BB000813049F018F0823059F008957093C300E5
:100BC0006093C20008957093C1006093C0000895BF
:100BD0007093BF006093BE0008951F920F920FB6EE
:100BE0000F9211242F933F934F935F936F937F93B3
:100BF0008F939F93AF93BF93EF93FF93E091C200C6
:100C0000F091C300309709F00995FF91EF91BF91E2
:100C1000AF919F918F917F916F915F914F913F9194
:100C20002F910F900FBE0F901F9018951F920F924B
:100C30000FB60F9211242F933F934F935F936F93AF
:100C40007F938F939F93AF93BF93EF93FF93E09125
:100C5000C000F091C100309709F00995FF91EF9124
:100C6000BF91AF919F918F917F916F915F914F91C4
:100C70003F912F910F900FBE0F901F9018951F92CC
:100C80000F920FB60F9211242F933F934F935F93C0
:100C90006F937F938F939F93AF93BF93EF93FF9344
:100CA000E091BE00F091BF00309709F00995FF91E7
:100CB000EF91BF91AF919F918F917F916F915F91D4
:100CC0004F913F912F910F900FBE0F901F9018954D
:100CD0001F920F920FB60F9211242F933F934F93B1
:100CE0005F936F937F938F939F93AF93BF93EF9394
:100CF000FF93E091C400F091C500309709F0099589
:100D0000FF91EF91BF91AF919F918F917F916F91E3
:100D10005F914F913F912F910F900FBE0F901F90B9
:100D200018951F920F920FB60F9211242F933F9395
:100D30004F935F936F937F938F939F93AF93BF93E3
:100D4000EF93FF93E091C800F091C900309709F04C
:100D50000995FF91EF91BF91AF919F918F917F91F5
:100D60006F915F914F913F912F910F900FBE0F9018
:100D70001F9018951F920F920FB60F9211242F9368
:100D80003F934F935F936F937F938F939F93AF9313
:100D9000BF93EF93FF93E091C600F091C7003097A7
:100DA00009F00995FF91EF91BF91AF919F918F91BC
:100DB0007F916F915F914F913F912F910F900FBE57
:100DC0000F901F9018951F920F920FB60F9211243B
:100DD0002F933F934F935F936F937F938F939F9343
:100DE000AF93BF93EF93FF93E091D000F091D100C8
:100DF000309709F00995FF91EF91BF91AF919F91C5
:100E00008F917F916F915F914F913F912F910F90B3
:100E10000FBE0F901F9018951F920F920FB60F9252
:100E200011242F933F934F935F936F937F938F93EF
:100E30009F93AF93BF93EF93FF93E091CE00F09118
:100E4000CF00309709F00995FF91EF91BF91AF91D5
:100E50009F918F917F916F915F914F913F912F91D2
:100E60000F900FBE0F901F9018951F920F920FB604
:100E70000F9211242F933F934F935F936F937F9320
:100E80008F939F93AF93BF93EF93FF93E091CC0029
:100E9000F091CD00309709F00995FF91EF91BF9146
:100EA000AF919F918F917F916F915F914F913F9102
:100EB0002F910F900FBE0F901F9018951F920F92B9
:100EC0000FB60F9211242F933F934F935F936F931D
:100ED0007F938F939F93AF93BF93EF93FF93E09193
:100EE000CA00F091CB00309709F00995FF91EF917E
:100EF000BF91AF919F918F917F916F915F914F9132
:100F00003F912F910F900FBE0F901F9018951F9239
:100F10000F920FB60F9211242F933F934F935F932D
:100F20006F937F938F939F93AF93BF93EF93FF93B1
:100F3000E091D400F091D500309709F00995FF9128
:100F4000EF91BF91AF919F918F917F916F915F9141
:100F50004F913F912F910F900FBE0F901F901895BA
:100F60001F920F920FB60F9211242F933F934F931E
:100F70005F936F937F938F939F93AF93BF93EF9301
:100F8000FF93E091D200F091D300309709F00995DA
:100F9000FF91EF91BF91AF919F918F917F916F9151
:100FA0005F914F913F912F910F900FBE0F901F9027
:100FB0001895A1E21A2EAA1BBB1BFD010DC0AA1F8A
:100FC000BB1FEE1FFF1FA217B307E407F50720F0B2
:100FD000A21BB30BE40BF50B661F771F881F991F2D
:100FE0001A9469F760957095809590959B01AC0176
:100FF000BD01CF010895052E97FB1EF400940E94B9
:10100000120857FD07D00E94D90707FC03D04EF401
:101010000C94120850954095309521953F4F4F4FB5
:101020005F4F089590958095709561957F4F8F4F94
:101030009F4F0895A29FB001B39FC001A39F700D61
:10104000811D1124911DB29F700D811D1124911DD0
:061050000895F894FFCFA3
:101056000145585F494E5420536F757263653A00D7
:1010660054454D50004C44520054656D703A004C46
:1010760044523A002020202020202020202020201A
:1010860020202020000101000000000001000000D7
:101096000000000000020200000000000000000046
:0610A6000000020202003E
:00000001FF
